:100000000C942A000C9445000C9472000C9445004A
:100010000C9445000C9445000C9445000C9445004C
:100020000C9445000C94E8010C9445000C94450098
:100030000C9445000C9445000C9445000C9445002C
:100040000C9445000C9445000C9445000C9445001C
:100050000C94450011241FBECFE5D4E0DEBFCDBF18
:1000600011E0A0E6B0E0EAE3FCE302C005900D92E7
:10007000A83DB107D9F712E0A8EDB1E001C01D928B
:10008000A232B107E1F70C9447000C940000CFE5D1
:10009000D4E0DEBFCDBF0E9416030E94EF0420E033
:1000A00040E650E062E085E00E94350620E041E74E
:1000B00050E064E080E00E94350620E04FE750E029
:1000C00065E080E00E94350666E180E00E94B31D95
:1000D00099279093D9018093D8018091D80180937A
:1000E0004300FFCF1F920F920FB60F9211242F9350
:1000F0003F934F935F936F937F938F939F93AF93B0
:10010000BF93EF93FF93CF93DF93CDB7DEB780918B
:100110003900992780749070009709F04AC0809147
:10012000DC01882371F58091DE0181508093DE012E
:100130008091DE0188231CF481E08093DE018091B0
:10014000DE01813079F421E041E750E064E080E0B5
:100150000E94350620E04FE750E065E080E00E9415
:10016000350623C120E041E750E064E080E00E94D2
:10017000350621E04FE750E065E080E00E9435065B
:1001800014C184E00E947A160E946F130E94AA1480
:100190008093DD018091DD01813019F40E94C61346
:1001A00004C18091DD01823009F0FFC00E94D413A8
:1001B000FCC08091390088230CF44FC08091DC0191
:1001C000882399F58091DE018F5F8093DE01809115
:1001D000DE0183301CF081E08093DE018091DE013E
:1001E000813079F421E041E750E064E080E00E9452
:1001F000350620E04FE750E065E080E00E943506DC
:10020000D4C08091DE01823009F0CFC020E041E708
:1002100050E064E080E00E94350621E04FE750E0C6
:1002200065E080E00E943506C0C082E00E947A1638
:100230000E946F130E94AA148093DD018091DD015A
:10024000813019F40E94C613B0C08091DD01823064
:1002500009F0ABC00E94D413A8C08091390099273F
:1002600080719070009759F58091DC01882379F4B2
:100270008091DE01813009F098C081E08093DC013B
:100280000E9437050E949C070E946F138EC083E076
:100290000E947A160E946F130E94AA148093DD01B7
:1002A0008091DD01813019F40E94C6137EC08091D7
:1002B000DD01823009F079C00E94D41376C08091AC
:1002C0003900992780729070009759F58091DC0170
:1002D000882379F48091DE01813009F066C081E0E5
:1002E0008093DC010E9437050E949C070E946F13D7
:1002F0005CC081E00E947A160E946F130E94AA14CB
:100300008093DD018091DD01813019F40E94C613D4
:100310004CC08091DD01823009F047C00E94D413A7
:1003200044C080913300882314F18091D8019091CA
:10033000D9010A969093D9018093D8018091D80170
:100340009091D9018F3F910539F034F08FEF90E013
:100350009093D9018093D8018091D8018093430074
:100360004091D80166E180E00E94701D1EC080911E
:10037000D8019091D9010A979093D9018093D8011F
:100380008091D8019091D9018A30910524F410927E
:10039000D9011092D8018091D801809343004091F7
:1003A000D80166E180E00E94701DDF91CF91FF913E
:1003B000EF91BF91AF919F918F917F916F915F91DD
:1003C0004F913F912F910F900FBE0F901F90189556
:1003D0001F920F920FB60F9211242F933F934F93BA
:1003E0005F936F937F938F939F93AF93BF93EF939D
:1003F000FF93CF93DF93CDB7DEB72297DEBFCDBF9C
:100400001A8219828091DF018F5F8093DF018091D2
:10041000DF018A3009F051C01092DF010E94D90239
:100420009093DB018093DA018091DA019091DB01F6
:10043000845591409A83898389819A8199231CF4F8
:100440001A8219820AC089819A8122E330E0B901B7
:100450000E940A1ECB019A83898389819A81863002
:10046000910524F085E090E09A83898380918B0048
:10047000282F332789819A81281739072CF48091F6
:100480008B0099279A83898380918B00282F3327AB
:1004900089819A81821793071CF489810E946E06D4
:1004A000898180938B0089819A81823091052CF417
:1004B000809132008F7D809332002296F894DEBFC7
:1004C000CDBFDF91CF91FF91EF91BF91AF919F9100
:1004D0008F917F916F915F914F913F912F910F90ED
:1004E0000FBE0F901F901895CF93DF93CDB7DEB757
:1004F000809131008062809331008091320080626F
:1005000080933200DF91CF910895CF93DF93CDB7E1
:10051000DEB780913A008F7080933A0080913B0063
:10052000806F80933B00809134008F738093340000
:1005300080913500806C809335008CE0809355006D
:1005400080E880935B00DF91CF910895CF93DF9394
:10055000CDB7DEB7809131008068809331009FE78E
:100560008091320089238093320089E68093450090
:1005700010924300809153008063809353008091D8
:10058000530085608093530010925C007894DF9153
:10059000CF910895CF93DF93CDB7DEB7109252007D
:1005A00085E08093530081E080935900DF91CF91E3
:1005B0000895CF93DF93CDB7DEB722970FB6F894A7
:1005C000DEBF0FBECDBF80913A00877F80933A0097
:1005D00083EC8093270080E880932600809126009A
:1005E0008064809326008091260099278071907006
:1005F000009709F4F8CF8091240099279A83898382
:10060000809125009927382F222789819A81820F8E
:10061000931F9A83898389819A8122960FB6F894D1
:10062000DEBF0FBECDBFDF91CF910895CF93DF9393
:10063000CDB7DEB7F8940E94A4040E94CE1C0E949D
:1006400074020E9485020E94A6020E94CA020E94B1
:10065000D9027894DF91CF910895CF93DF93CDB7EE
:10066000DEB726970FB6F894DEBF0FBECDBF9A83D4
:1006700089831C821B821E821D821C821B822B810D
:100680003C8189819A8128173907A0F41E821D8236
:100690008D819E8121E08C32920730F48D819E8184
:1006A00001969E838D83F4CF8B819C8101969C83E0
:1006B0008B83E5CF26960FB6F894DEBF0FBECDBF75
:1006C000DF91CF9108950F931F93CF93DF93CDB711
:1006D000DEB729970FB6F894DEBF0FBECDBF9A8361
:1006E00089837C836B831D828B819C819F838E8316
:1006F0008B819C819987888789819A81009779F479
:10070000DE0115964C91842F282F33278B819C81F5
:10071000F901E80FF91F80E380834F5F4C938981D3
:100720009A81009711F1FE0135964081842F282F80
:1007300033278B819C818901080F191F89819A8138
:100740002AE030E0B9010E94F61D805DD8018C934B
:100750004F5F408389819A812AE030E0B9010E948D
:10076000F61DCB019A838983DACF8D81282F332719
:100770008B819C81F901E80FF91F10828D81282F50
:1007800033278B819C81820F931F01979F838E83D8
:100790008E819F8128853985821B930B1816190637
:1007A00064F528853985E885F985AE81BF8190811A
:1007B0008C918927F90180832E813F81EE81FF8111
:1007C000A885B98590818C918927D9018C9328853A
:1007D0003985E885F985AE81BF8190818C91892723
:1007E000F90180838E819F8101979F838E83888505
:1007F0009985019699878887CBCF8D8199272996EE
:100800000FB6F894DEBF0FBECDBFDF91CF911F9121
:100810000F910895CF93DF93CDB7DEB78091370066
:10082000806A8093370080913A00876080933A0015
:1008300080913B00876080933B00DF91CF910895CA
:10084000CF93DF93CDB7DEB722970FB6F894DEBF14
:100850000FBECDBF898380913800806880933800B7
:1008600080913B008E7F80933B001A828A81883082
:1008700000F59FE7809138008923809338008981B3
:10088000882334F48091380080628093380005C05A
:10089000809138008F7D809338008981880F89830B
:1008A000809138008068809338008A818F5F8A83C6
:1008B000DDCF8091380080688093380080913B00C4
:1008C000816080933B0022960FB6F894DEBF0FBE86
:1008D000CDBFDF91CF910895CF93DF93CDB7DEB732
:1008E00021970FB6F894DEBF0FBECDBF89838091EC
:1008F0003B008B7F80933B0089810E9420042196DE
:100900000FB6F894DEBF0FBECDBFDF91CF91089533
:10091000CF93DF93CDB7DEB721970FB6F894DEBF44
:100920000FBECDBF898380913B00846080933B00E4
:1009300089810E94200421960FB6F894DEBF0FBE75
:10094000CDBFDF91CF910895CF93DF93CDB7DEB7C1
:100950000E940A0480913B00826080933B0081E00A
:1009600090E00E942D0380913B008D7F80933B009F
:100970008AE090E00E942D0380913B00826080938A
:100980003B008AE090E00E942D0380E40E946C040A
:1009900080EA0E946C0488EC0E946C0484EA0E9445
:1009A0006C0486EA0E946C0482EA0E946C048FE266
:1009B0000E946C0487E20E946C0481E80E946C042F
:1009C00080E10E946C048AEF0E946C0480E90E941E
:1009D0006C048FEA0E946C04DF91CF910895CF934D
:1009E000DF93CDB7DEB724970FB6F894DEBF0FBE06
:1009F000CDBF19821A821B821C821982898188309C
:100A000068F580EB9981890F0E946C041A828A81B3
:100A1000863600F58A8199274E96807F907095954D
:100A200087959595879595958795959587958061F7
:100A30008B838A81825E8F708C838B810E946C0491
:100A40008C810E946C0480E00E9488048A818F5F00
:100A50008A83DDCF89818F5F8983D0CF24960FB6BB
:100A6000F894DEBF0FBECDBFDF91CF910895CF9335
:100A7000DF93CDB7DEB724970FB6F894DEBF0FBE75
:100A8000CDBF19821A821B821C8281E089838981F1
:100A9000883068F580EB9981890F0E946C041A8276
:100AA0008A81863600F58A8199274E96807F9070DC
:100AB000959587959595879595958795959587951E
:100AC00080618B838A81825E8F708C838B810E9490
:100AD0006C048C810E946C0480E00E9488048A81EE
:100AE0008F5F8A83DDCF89818F5F8983D0CF249602
:100AF0000FB6F894DEBF0FBECDBFDF91CF91089542
:100B0000CF93DF93CDB7DEB722970FB6F894DEBF51
:100B10000FBECDBF89836A8390EB8A81890F0E94C3
:100B20006C04898199274E96807F90709595879562
:100B300095958795959587959595879580610E9460
:100B40006C048981825E8F700E946C0422960FB6BD
:100B5000F894DEBF0FBECDBFDF91CF910895CF9344
:100B6000DF93CDB7DEB726970FB6F894DEBF0FBE82
:100B7000CDBF89836A834B832C831D821E828B8128
:100B8000803211F41D8219C08B818E3219F481E0FC
:100B90008D8313C08B81803338F08B818B3320F4AD
:100BA0008B818E528D8309C08B81813630F08B8191
:100BB0008B3718F48B8184558D838981863620F09C
:100BC00019828A818F5F8A836A8189810E94800568
:100BD0008C818823F9F41E828E818630E8F58E811F
:100BE000482F55278D81282F3327C901880F991F3A
:100BF000880F991F820F931F820F931F840F951FD9
:100C0000FC01E457FF4F80810E9488048E818F5F32
:100C10008E83E2CF1E828E818630F0F46FEF8E815C
:100C2000482F55278D81282F3327C901880F991FF9
:100C3000880F991F820F931F820F931F840F951F98
:100C4000FC01E457FF4F8081681B862F0E948804B7
:100C50008E818F5F8E83DFCF26960FB6F894DEBF2E
:100C60000FBECDBFDF91CF910895CF93DF93CDB766
:100C7000DEB726970FB6F894DEBF0FBECDBF8983CF
:100C80006A835C834B832D831E828E81282F3327BA
:100C90008B819C81F901E80FF91F80818823A9F0DD
:100CA0008E81282F33278B819C81F901E80FF91F52
:100CB0002D8140816A8189810E94AF058E818F5F7D
:100CC0008E8389818A5F8983E0CF26960FB6F89458
:100CD000DEBF0FBECDBFDF91CF910895CF93DF93DD
:100CE000CDB7DEB721970FB6F894DEBF0FBECDBFEC
:100CF000898360E08FE50E94800586E00E94880479
:100D00008981882359F560E080E60E94800589E0AA
:100D10000E94880460E081E60E94800589E00E94CC
:100D2000880460E082E60E94800589E00E948804D1
:100D300060E083E60E94800589E00E94880460E00C
:100D400084E60E94800589E00E94880460E085E6D0
:100D50000E9480058FE00E948804E5C0898181306F
:100D600059F560E080E60E94800589E00E948804D1
:100D700060E081E60E94800589E00E94880460E0CE
:100D800082E60E94800589E00E94880460E083E694
:100D90000E94800589E00E94880460E084E60E9449
:100DA00080058FE00E94880460E085E60E9480054F
:100DB0008FE00E948804B7C08981823059F560E0D5
:100DC00080E60E94800589E00E94880460E081E658
:100DD0000E94800589E00E94880460E082E60E940B
:100DE000800589E00E94880460E083E60E94800517
:100DF0008FE00E94880460E084E60E9480058FE016
:100E00000E94880460E085E60E9480058FE00E94D1
:100E1000880489C08981833059F560E080E60E94AA
:100E2000800589E00E94880460E081E60E948005D8
:100E300089E00E94880460E082E60E9480058FE0DD
:100E40000E94880460E083E60E9480058FE00E9493
:100E5000880460E084E60E9480058FE00E94880498
:100E600060E085E60E9480058FE00E9488045BC0F8
:100E70008981843059F560E080E60E94800589E030
:100E80000E94880460E081E60E9480058FE00E9455
:100E9000880460E082E60E9480058FE00E9488045A
:100EA00060E083E60E9480058FE00E94880460E095
:100EB00084E60E9480058FE00E94880460E085E659
:100EC0000E9480058FE00E9488042DC089818530B2
:100ED00051F560E080E60E9480058FE00E94880462
:100EE00060E081E60E9480058FE00E94880460E057
:100EF00082E60E9480058FE00E94880460E083E61D
:100F00000E9480058FE00E94880460E084E60E94D1
:100F100080058FE00E94880460E085E60E948005DD
:100F20008FE00E94880421960FB6F894DEBF0FBEB2
:100F3000CDBFDF91CF910895EF92FF920F931F9352
:100F4000CF93DF93CDB7DEB723970FB6F894DEBF0C
:100F50000FBECDBF19821A8210925B0088EC90E020
:100F60000E942D0320E042E951E062E080E00E940F
:100F7000350620E042EA51E063E080E00E94350659
:100F800080913900992780719070009709F08BC08B
:100F90001B8219828981843008F069C01A828A8193
:100FA000843008F060C08981282F33278A81482F38
:100FB0005527C901880F991F880F991F9C01240F7D
:100FC000351FC901820F931F8C0100521E4F6B8188
:100FD00080E00E94B31D9927982F8827F8019183FC
:100FE00080838981282F33278A81482F5527C9017B
:100FF000880F991F880F991F9C01240F351FC90165
:10100000820F931F0F2EF0EEEF2EF1E0FF2EF02D4A
:10101000E80EF91E8981282F33278A81482F55270A
:10102000C901880F991F880F991F9C01240F351F34
:10103000C901820F931F8C0100521E4F6B8181E00A
:101040000E94B31D282F3327F80180819181820FE0
:10105000931FF701918380838B818F5F8B838A81BC
:101060008F5F8A839CCF89818F5F898393CF64E16F
:1010700080E00E94B31D9927982F88279093210222
:101080008093200265E180E00E94B31D282F332762
:101090008091200290912102820F931F9093210250
:1010A000809320020CC08091390099278072907043
:1010B000009709F065CF0E94E2130E94E2130E949C
:1010C000370520E042EB51E060E08AE00E943506FF
:1010D00019828981843008F058C0998187E1989FEE
:1010E000C00111248D5F67E00E9480058FE30E949C
:1010F0008804998187E1989FC00111248D5F66E083
:101100000E94800589EF0E948804998187E1989F59
:10111000C00111248D5F65E00E9480058FEF0E9461
:101120008804998187E1989FC00111248D5F64E054
:101130000E9480058FEC0E948804998187E1989F26
:10114000C00111248D5F63E00E9480058EEF0E9434
:101150008804998187E1989FC00111248D5F62E026
:101160000E9480058FE70E948804998187E1989FFB
:10117000C00111248D5F61E00E94800580EF0E9414
:10118000880489818F5F8983A4CF19828981843003
:1011900008F058C0998187E1989FC0011124885EAA
:1011A00067E00E9480058FE30E948804998187E1AF
:1011B000989FC0011124885E66E00E94800589EF37
:1011C0000E948804998187E1989FC0011124885E5C
:1011D00065E00E9480058FEF0E948804998187E175
:1011E000989FC0011124885E64E00E9480058FEC06
:1011F0000E948804998187E1989FC0011124885E2C
:1012000063E00E9480058EEF0E948804998187E147
:10121000989FC0011124885E62E00E9480058FE7DC
:101220000E948804998187E1989FC0011124885EFB
:1012300061E00E94800580EF0E94880489818F5FB1
:101240008983A4CF19828981843008F05CC084E04E
:101250008A838A81883108F052C0998187E1989FFA
:10126000C00111242A81820F67E00E94800580E27C
:101270000E948804998187E1989FC00111242A81E6
:10128000820F66E00E94800589E00E9488049981AF
:1012900087E1989FC00111242A81820F64E00E9497
:1012A000800588E40E948804998187E1989FC001A5
:1012B00011242A81820F63E00E94800582E00E944F
:1012C0008804998187E1989FC00111242A81820FA7
:1012D00062E00E94800580E40E948804998187E191
:1012E000989FC00111242A81820F61E00E9480052D
:1012F00080E10E9488048A818F5F8A83AACF8981D6
:101300008F5F8983A0CF80E880935B0023960FB620
:10131000F894DEBF0FBECDBFDF91CF911F910F912B
:10132000FF90EF900895CF93DF93CDB7DEB72D9761
:101330000FB6F894DEBF0FBECDBF89836A835C838E
:101340004B838091BA019091BB01A091BC01B091F7
:10135000BD018D839E83AF83B88719861A861B864D
:101360001C861D868B819C81009739F0CE010596E5
:10137000BC018B819C810E9463038981882309F0D1
:10138000D1C29A8187E1989FC00111248B5F61E0EF
:101390000E94800519868985833138F480E10E9496
:1013A000880489858F5F8987F6CF9A8187E1989F26
:1013B000C00111248B5F62E00E9480051986898537
:1013C000833138F480E40E94880489858F5F89879F
:1013D000F6CF8B819C818031910508F06AC09A819B
:1013E00087E1989FC0011124855F61E00E9480051C
:1013F0008B819C81009751F119868985863030F563
:101400008985482F55278D81282F3327C901880FBB
:10141000991F880F991F820F931F820F931F840FAC
:10142000951FFC01E858F04080819927002496958B
:1014300087950794969587950794982F802D8061BE
:101440000E94880489858F5F8987D7CF9A8187E139
:10145000989FC0011124855F62E00E9480058B8106
:101460009C81009711F40C94661319868985863047
:1014700010F00C9466138985482F55278D81282FED
:101480003327C901880F991F880F991F820F931F57
:10149000820F931F840F951FFC01E858F040808154
:1014A0008695869580640E94880489858F5F8987E8
:1014B000DDCF8B819C818038910508F0ACC09A818A
:1014C00087E1989FC0011124885F61E00E94800538
:1014D0001A868A85863030F58A85482F55278D8172
:1014E000282F3327C901880F991F880F991F820F52
:1014F000931F820F931F840F951FFC01E858F04043
:1015000080819927002496958795079496958795CD
:101510000794982F802D80610E9488048A858F5FB0
:101520008A87D7CF1A868A85863030F58A85482FF4
:1015300055278E81282F3327C901880F991F880FBF
:10154000991F820F931F820F931F840F951FFC0119
:10155000E858F04080819927002496958795079454
:10156000969587950794982F802D80610E94880416
:101570008A858F5F8A87D7CF9A8187E1989FC0013C
:101580001124885F62E00E9480051A868A85863071
:10159000F0F48A85482F55278D81282F3327C901DC
:1015A000880F991F880F991F820F931F820F931F17
:1015B000840F951FFC01E858F04080818695869540
:1015C00080640E9488048A858F5F8A87DFCF1A86AD
:1015D0008A85863010F00C9466138A85482F55272B
:1015E0008E81282F3327C901880F991F880F991FD3
:1015F000820F931F820F931F840F951FFC01E858E1
:10160000F04080818695869580640E9488048A8552
:101610008F5F8A87DDCF8B819C8124E080309207A9
:1016200008F0F7C09A8187E1989FC00111248B5F71
:1016300061E00E9480051B868B85863030F58B85A6
:10164000482F55278D81282F3327C901880F991FCF
:10165000880F991F820F931F820F931F840F951F6E
:10166000FC01E858F04080819927002496958795E1
:101670000794969587950794982F802D80610E94F6
:1016800088048B858F5F8B87D7CF1B868B858630B1
:1016900030F58B85482F55278E81282F3327C90198
:1016A000880F991F880F991F820F931F820F931F16
:1016B000840F951FFC01E858F04080819927002491
:1016C000969587950794969587950794982F802DE2
:1016D00080610E9488048B858F5F8B87D7CF1B86A4
:1016E0008B85863030F58B85482F55278F81282FA5
:1016F0003327C901880F991F880F991F820F931FE5
:10170000820F931F840F951FFC01E858F0408081E1
:101710009927002496958795079496958795079421
:10172000982F802D80610E9488048B858F5F8B8726
:10173000D7CF9A8187E1989FC00111248B5F62E027
:101740000E9480051B868B858630F0F48B85482FA0
:1017500055278D81282F3327C901880F991F880F9E
:10176000991F820F931F820F931F840F951FFC01F7
:10177000E858F04080818695869580640E948804B0
:101780008B858F5F8B87DFCF1B868B858630F0F450
:101790008B85482F55278E81282F3327C901880F25
:1017A000991F880F991F820F931F820F931F840F19
:1017B000951FFC01E858F0408081869586958064ED
:1017C0000E9488048B858F5F8B87DFCF1B868B857C
:1017D000863008F07BC78B85482F55278F81282FAF
:1017E0003327C901880F991F880F991F820F931FF4
:1017F000820F931F840F951FFC01E858F0408081F1
:101800008695869580640E9488048B858F5F8B8780
:10181000DECF8B819C8124E08030920709F041C0AB
:101820009A8187E1989FC00111248B5F61E00E943B
:1018300080051C868C858331B8F48C859927FC0142
:10184000EA58FE4F80819927002496958795079442
:10185000969587950794982F802D80610E94880423
:101860008C858F5F8C87E6CF9A8187E1989FC00136
:1018700011248B5F62E00E9480051C868C85833179
:1018800008F024C78C859927FC01EA58FE4F808117
:101890008695869580640E9488048C858F5F8C87EE
:1018A000EDCF9A8187E1989FC0011124855F61E0A7
:1018B0000E9480051D868D858930B8F48D85992715
:1018C000FC01E757FE4F8081992700249695879564
:1018D0000794969587950794982F802D80610E9494
:1018E00088048D858F5F8D87E6CF9A8187E1989FE9
:1018F000C0011124855F62E00E9480051D868D85F0
:10190000893008F0E3C68D859927FC01E757FE4F23
:1019100080818695869580640E9488048D858F5F7E
:101920008D87EDCF8981813009F0BEC29A8187E130
:10193000989FC00111248B5F63E00E948005198687
:101940008985833138F482E00E94880489858F5F1D
:101950008987F6CF9A8187E1989FC00111248B5F18
:1019600064E00E94800519868985833138F488E413
:101970000E94880489858F5F8987F6CF8B819C813F
:101980008031910508F066C09A8187E1989FC00177
:101990001124855F63E00E9480058B819C81009704
:1019A00039F119868985863018F58985482F55279C
:1019B0008D81282F3327C901880F991F880F991F00
:1019C000820F931F820F931F840F951FFC01E8580D
:1019D000F04080819927880F991F880F991F880FE1
:1019E000991F82600E94880489858F5F8987DACF7A
:1019F0009A8187E1989FC0011124855F64E00E946D
:101A000080058B819C81009709F460C619868985C1
:101A1000863008F05BC68985482F55278D81282F91
:101A20003327C901880F991F880F991F820F931FB1
:101A3000820F931F840F951FFC01E858F0408081AE
:101A400082958695877088640E94880489858F5F57
:101A50008987DDCF8B819C818038910508F0A7C0F4
:101A60009A8187E1989FC0011124885F63E00E94FA
:101A700080051A868A85863018F58A85482F55276D
:101A80008D81282F3327C901880F991F880F991F2F
:101A9000820F931F820F931F840F951FFC01E8583C
:101AA000F04080819927880F991F880F991F880F10
:101AB000991F82600E9488048A858F5F8A87DACFA7
:101AC0001A868A85863018F58A85482F55278E8193
:101AD000282F3327C901880F991F880F991F820F5C
:101AE000931F820F931F840F951FFC01E858F0404D
:101AF00080819927880F991F880F991F880F991F38
:101B000082600E9488048A858F5F8A87DACF9A81F3
:101B100087E1989FC0011124885F64E00E948005DE
:101B20001A868A858630F8F48A85482F55278D8154
:101B3000282F3327C901880F991F880F991F820FFB
:101B4000931F820F931F840F951FFC01E858F040EC
:101B5000808182958695877088640E9488048A8532
:101B60008F5F8A87DECF1A868A85863008F0AEC5F9
:101B70008A85482F55278E81282F3327C901880F42
:101B8000991F880F991F820F931F820F931F840F35
:101B9000951FFC01E858F0408081829586958770FA
:101BA00088640E9488048A858F5F8A87DDCF8B8155
:101BB0009C8124E08030920708F0F1C09A8187E18F
:101BC000989FC00111248B5F63E00E9480051B86F3
:101BD0008B85863018F58B85482F55278D81282FCA
:101BE0003327C901880F991F880F991F820F931FF0
:101BF000820F931F840F951FFC01E858F0408081ED
:101C00009927880F991F880F991F880F991F826045
:101C10000E9488048B858F5F8B87DACF1B868B852C
:101C2000863018F58B85482F55278E81282F33272E
:101C3000C901880F991F880F991F820F931F820F68
:101C4000931F840F951FFC01E858F040808199276D
:101C5000880F991F880F991F880F991F82600E9413
:101C600088048B858F5F8B87DACF1B868B858630C8
:101C700018F58B85482F55278F81282F3327C901C9
:101C8000880F991F880F991F820F931F820F931F30
:101C9000840F951FFC01E858F04080819927880F38
:101CA000991F880F991F880F991F82600E948804CE
:101CB0008B858F5F8B87DACF9A8187E1989FC001F0
:101CC00011248B5F64E00E9480051B868B85863023
:101CD000F8F48B85482F55278D81282F3327C9018C
:101CE000880F991F880F991F820F931F820F931FD0
:101CF000840F951FFC01E858F040808182958695FD
:101D0000877088640E9488048B858F5F8B87DECF05
:101D10001B868B858630F8F48B85482F55278E815E
:101D2000282F3327C901880F991F880F991F820F09
:101D3000931F820F931F840F951FFC01E858F040FA
:101D4000808182958695877088640E9488048B853F
:101D50008F5F8B87DECF1B868B85863008F0B6C4FD
:101D60008B85482F55278F81282F3327C901880F4E
:101D7000991F880F991F820F931F820F931F840F43
:101D8000951FFC01E858F040808182958695877008
:101D900088640E9488048B858F5F8B87DDCF8B8161
:101DA0009C8124E08030920709F03FC09A8187E14E
:101DB000989FC00111248B5F63E00E9480051C8600
:101DC0008C858331A0F48C859927FC01EA58FE4F5D
:101DD00080819927880F991F880F991F880F991F55
:101DE00082600E9488048C858F5F8C87E9CF9A81FE
:101DF00087E1989FC00111248B5F64E00E948005F9
:101E00001C868C85833108F061C48C859927FC0180
:101E1000EA58FE4F808182958695877088640E947B
:101E200088048C858F5F8C87ECCF9A8187E1989F9F
:101E3000C0011124855F63E00E9480051D868D85A9
:101E40008930A0F48D859927FC01E757FE4F8081EA
:101E50009927880F991F880F991F880F991F8260F3
:101E60000E9488048D858F5F8D87E9CF9A8187E1F5
:101E7000989FC0011124855F64E00E9480051D8643
:101E80008D85893008F022C48D859927FC01E7579C
:101E9000FE4F808182958695877088640E948804B1
:101EA0008D858F5F8D87ECCF8981823009F03DC1B0
:101EB0009A8187E1989FC00111248B5F65E00E94A1
:101EC000800519868985833138F480E00E94880472
:101ED00089858F5F8987F6CF8B819C8180319105C1
:101EE00070F59A8187E1989FC0011124855F65E0B4
:101EF0000E9480058B819C81009709F4E7C31986B5
:101F00008985863008F0E2C38985482F55278D8161
:101F1000282F3327C901880F991F880F991F820F17
:101F2000931F820F931F840F951FFC01E858F04008
:101F300080810E94880489858F5F8987E1CF8B81AA
:101F40009C818038910508F048C09A8187E1989F6C
:101F5000C0011124885F65E00E9480051A868A8589
:101F60008630D8F48A85482F55278D81282F33272E
:101F7000C901880F991F880F991F820F931F820F25
:101F8000931F840F951FFC01E858F04080810E9448
:101F900088048A858F5F8A87E2CF1A868A85863091
:101FA00008F094C38A85482F55278E81282F332720
:101FB000C901880F991F880F991F820F931F820FE5
:101FC000931F840F951FFC01E858F04080810E9408
:101FD00088048A858F5F8A87E1CF8B819C8124E08A
:101FE0008030920708F067C09A8187E1989FC0010E
:101FF00011248B5F65E00E9480051B868B858630EF
:10200000D8F48B85482F55278D81282F3327C90178
:10201000880F991F880F991F820F931F820F931F9C
:10202000840F951FFC01E858F04080810E948804CD
:102030008B858F5F8B87E2CF1B868B858630D8F4AC
:102040008B85482F55278E81282F3327C901880F6C
:10205000991F880F991F820F931F820F931F840F60
:10206000951FFC01E858F04080810E9488048B8510
:102070008F5F8B87E2CF1B868B85863008F026C367
:102080008B85482F55278F81282F3327C901880F2B
:10209000991F880F991F820F931F820F931F840F20
:1020A000951FFC01E858F04080810E9488048B85D0
:1020B0008F5F8B87E1CF8B819C8124E080309207FA
:1020C000D1F49A8187E1989FC00111248B5F65E06C
:1020D0000E9480051C868C85833108F0F7C28C85B0
:1020E0009927FC01EA58FE4F80810E9488048C8564
:1020F0008F5F8C87F0CF9A8187E1989FC001112470
:10210000855F65E00E9480051D868D85893008F019
:10211000DDC28D859927FC01E757FE4F80810E9423
:1021200088048D858F5F8D87F0CF8981833009F09A
:10213000CDC29A8187E1989FC00111248B5F66E030
:102140000E94800519868985833138F489E00E94D0
:10215000880489858F5F8987F6CF9A8187E1989F68
:10216000C00111248B5F67E00E9480051986898574
:10217000833138F480E20E94880489858F5F8987E3
:10218000F6CF8B819C818031910508F068C09A81DF
:1021900087E1989FC0011124855F66E00E94800559
:1021A0008B819C81009749F119868985863028F5B5
:1021B0008985482F55278D81282F3327C901880FFE
:1021C000991F880F991F820F931F820F931F840FEF
:1021D000951FFC01E858F04080819927880F991FCE
:1021E00082959295907F9827807F982789600E949A
:1021F000880489858F5F8987D8CF9A8187E1989FE6
:10220000C0011124855F67E00E9480058B819C815D
:10221000009709F45BC219868985863008F056C29A
:102220008985482F55278D81282F3327C901880F8D
:10223000991F880F991F820F931F820F931F840F7E
:10224000951FFC01E858F04080818695869586951B
:1022500080620E94880489858F5F8987DDCF8B81AA
:102260009C818038910508F0ABC09A8187E1989FE6
:10227000C0011124885F66E00E9480051A868A8565
:10228000863028F58A85482F55278D81282F3327BA
:10229000C901880F991F880F991F820F931F820F02
:1022A000931F840F951FFC01E858F0408081992707
:1022B000880F991F82959295907F9827807F982705
:1022C00089600E9488048A858F5F8A87D8CF1A86A2
:1022D0008A85863028F58A85482F55278E81282FB4
:1022E0003327C901880F991F880F991F820F931FE9
:1022F000820F931F840F951FFC01E858F0408081E6
:102300009927880F991F82959295907F9827807FB3
:10231000982789600E9488048A858F5F8A87D8CF32
:102320009A8187E1989FC0011124885F67E00E942D
:1023300080051A868A858630F8F48A85482F5527C5
:102340008D81282F3327C901880F991F880F991F66
:10235000820F931F820F931F840F951FFC01E85873
:10236000F040808186958695869580620E948804DB
:102370008A858F5F8A87DECF1A868A85863008F045
:10238000A5C18A85482F55278E81282F3327C9015B
:10239000880F991F880F991F820F931F820F931F19
:1023A000840F951FFC01E858F04080818695869542
:1023B000869580620E9488048A858F5F8A87DDCF38
:1023C0008B819C8124E08030920708F0F7C09A81CD
:1023D00087E1989FC00111248B5F66E00E94800511
:1023E0001B868B85863028F58B85482F55278D8158
:1023F000282F3327C901880F991F880F991F820F33
:10240000931F820F931F840F951FFC01E858F04023
:1024100080819927880F991F82959295907F9827A0
:10242000807F982789600E9488048B858F5F8B87C7
:10243000D8CF1B868B85863028F58B85482F55276E
:102440008E81282F3327C901880F991F880F991F64
:10245000820F931F820F931F840F951FFC01E85872
:10246000F04080819927880F991F82959295907FDF
:102470009827807F982789600E9488048B858F5FCA
:102480008B87D8CF1B868B85863028F58B85482F88
:1024900055278F81282F3327C901880F991F880F4F
:1024A000991F820F931F820F931F840F951FFC01AA
:1024B000E858F04080819927880F991F829592955E
:1024C000907F9827807F982789600E9488048B8559
:1024D0008F5F8B87D8CF9A8187E1989FC0011124A5
:1024E0008B5F67E00E9480051B868B858630F8F441
:1024F0008B85482F55278D81282F3327C901880FB9
:10250000991F880F991F820F931F820F931F840FAB
:10251000951FFC01E858F040808186958695869548
:1025200080620E9488048B858F5F8B87DECF1B863D
:102530008B858630F8F48B85482F55278E81282F80
:102540003327C901880F991F880F991F820F931F86
:10255000820F931F840F951FFC01E858F040808183
:1025600086958695869580620E9488048B858F5F0C
:102570008B87DECF1B868B85863008F0A7C08B85C6
:10258000482F55278F81282F3327C901880F991F7E
:10259000880F991F820F931F820F931F840F951F1F
:1025A000FC01E858F040808186958695869580628A
:1025B0000E9488048B858F5F8B87DDCF8B819C8108
:1025C00024E08030920709F041C09A8187E1989F0A
:1025D000C00111248B5F66E00E9480051C868C85FB
:1025E0008331B0F48C859927FC01EA58FE4F808135
:1025F0009927880F991F82959295907F9827807FC1
:10260000982789600E9488048C858F5F8C87E7CF2C
:102610009A8187E1989FC00111248B5F67E00E9437
:1026200080051C868C85833108F050C08C859927E5
:10263000FC01EA58FE4F80818695869586958062DA
:102640000E9488048C858F5F8C87ECCF9A8187E10C
:10265000989FC0011124855F66E00E9480051D8659
:102660008D858930B0F48D859927FC01E757FE4FA1
:1026700080819927880F991F82959295907F98273E
:10268000807F982789600E9488048D858F5F8D8761
:10269000E7CF9A8187E1989FC0011124855F67E0A9
:1026A0000E9480051D868D85893080F48D8599274F
:1026B000FC01E757FE4F808186958695869580625E
:1026C0000E9488048D858F5F8D87EDCF2D960FB684
:1026D000F894DEBF0FBECDBFDF91CF910895CF93A9
:1026E000DF93CDB7DEB727970FB6F894DEBF0FBEE6
:1026F000CDBF8091BE0189831A821B821C821D82FC
:102700001E821F821E828E81843030F51F828F814F
:102710008430F0F48E81282F33278F81482F55275E
:10272000C901880F991F880F991F9C01240F351F1D
:10273000C901820F931FFC01E052FE4F408151817D
:102740006F818E810E9493098F818F5F8F83DFCF8E
:102750008E818F5F8E83D7CFBE016F5F7F4F809159
:102760002002909121020E94630320E0AE014F5F9E
:102770005F4F60E08EE20E94350627960FB6F89410
:10278000DEBF0FBECDBFDF91CF910895CF93DF9312
:10279000CDB7DEB720E043EC51E064E084E10E9475
:1027A0003506DF91CF910895CF93DF93CDB7DEB794
:1027B00020E04EEC51E064E084E10E943506DF91B8
:1027C000CF910895CF93DF93CDB7DEB765970FB65E
:1027D000F894DEBF0FBECDBF198280E1FE013296B4
:1027E00011928A95E9F71A8A1B8A1C8A1D8A1C8A0B
:1027F0008C898430D0F51D8A8D89843090F58C8940
:10280000282F33278D89482F5527C901880F991FF5
:10281000880F991F9C01240F351FC901820F931F38
:10282000FC01E052FE4F808191810097B1F48981D3
:102830008F5F89838D89282F33278C899927880F6B
:10284000991F880F991F280F391FCE010196820FFB
:10285000931FFC013196898180838D898F5F8D8BD9
:10286000CBCF8C898F5F8C8BC3CF809144009981B3
:10287000692F0E94EA1D892F8F5F8A8B8091440007
:1028800087708B8B1C8A8C89843008F05AC01D8A13
:102890008D89843008F051C08D89282F33278C8989
:1028A0009927880F991F880F991F280F391FCE016C
:1028B0000196820F931FFC01319690818A899817A7
:1028C000C1F58B898823C9F48C89282F33278D89FA
:1028D000482F5527C901880F991F880F991F9C0100
:1028E000240F351FC901820F931FFC01E052FE4FD8
:1028F00084E090E09183808320C08B898823C9F095
:102900008C89282F33278D89482F5527C901880F97
:10291000991F880F991F9C01240F351FC901820F31
:10292000931FFC01E052FE4F82E090E09183808390
:1029300004C08D898F5F8D8BABCF8C898F5F8C8B23
:10294000A2CF65960FB6F894DEBF0FBECDBFDF9164
:10295000CF910895CF93DF93CDB7DEB722970FB60F
:10296000F894DEBF0FBECDBF81E089831A821A8240
:102970008A81803118F58A8186958695482F55275A
:102980008A818370282F3327CA01880F991F880FE7
:10299000991F280F391FC901820F931FFC01E052B4
:1029A000FE4F8081918128E08030920719F482E007
:1029B000898304C08A818F5F8A83DACF89818130DD
:1029C00009F031C11A828A81893008F02CC18A81CC
:1029D00093E0692F0E94EA1D482F55278A8193E0D2
:1029E000692F0E94EA1D892F282F3327CA01880FDB
:1029F000991F880F991F280F391FC901820F931F34
:102A0000DC01A052BE4F8A8193E0692F0E94EA1D2B
:102A1000482F55278A8193E0692F0E94EA1D892F4C
:102A2000282F3327CA01880F991F880F991F280F55
:102A3000391FC901820F931FFC01EE51FE4F2D91EA
:102A40003C911197808191812817390709F460C062
:102A50008A8193E0692F0E94EA1D482F55278A81B9
:102A600093E0692F0E94EA1D892F282F3327CA017E
:102A7000880F991F880F991F280F391FC901820FCE
:102A8000931FDC01A052BE4F8A8193E0692F0E9400
:102A9000EA1D482F55278A8193E0692F0E94EA1D7D
:102AA000892F282F3327CA01880F991F880F991F54
:102AB000280F391FC901820F931FFC01E851FE4FF7
:102AC0002D913C911197808191812817390701F14F
:102AD0008A8193E0692F0E94EA1D482F55278A8139
:102AE00093E0692F0E94EA1D892F282F3327CA01FE
:102AF000880F991F880F991F280F391FC901820F4E
:102B0000931FFC01E052FE4F80819181009711F4E8
:102B1000198289C08A8193E0692F0E94EA1D892F5A
:102B2000282F3327C901820F931FDC01A850BE4F05
:102B30008A8193E0692F0E94EA1D892F282F33276D
:102B4000C901820F931FFC01E650FE4F2D913C916D
:102B50001197808191812817390709F45EC08A8115
:102B600093E0692F0E94EA1D9927880F991F880F0B
:102B7000991F880F991FDC01AA51BE4F8A8193E0EB
:102B8000692F0E94EA1D9927880F991F880F991FA6
:102B9000880F991FFC01E251FE4F2D913C91119736
:102BA0008081918128173907C1F18A8193E0692FCB
:102BB0000E94EA1D892F282F3327C901820F931FF6
:102BC000DC01A850BE4F8A8193E0692F0E94EA1D64
:102BD0009927880F991F880F991F880F991FFC014B
:102BE000EA51FE4F2D913C91119780819181289F50
:102BF000A001299F500D389F500D11249A018091FA
:102C0000FE019091FF01289FA001299F500D389F40
:102C1000500D1124CA01009711F4198204C08A8151
:102C20008F5F8A83D0CE8981992722960FB6F89438
:102C3000DEBF0FBECDBFDF91CF910895CF93DF935D
:102C4000CDB7DEB723970FB6F894DEBF0FBECDBF6A
:102C500019821A821B8219828981843008F03FC050
:102C60001A828A818430B8F58981282F33278A8196
:102C7000482F5527C901880F991F880F991F9C015C
:102C8000240F351FC901820F931FDC01A052BE4FD4
:102C90008981282F33278A81482F5527C901880F1A
:102CA000991F880F991F9C01240F351FC901820F9E
:102CB000931FFC01E050FE4F2D913C9111978081B4
:102CC00091812817390719F081E08B8304C08A812C
:102CD0008F5F8A83C6CF89818F5F8983BDCF8B81C8
:102CE000992723960FB6F894DEBF0FBECDBFDF91B4
:102CF000CF910895CF93DF93CDB7DEB726970FB668
:102D0000F894DEBF0FBECDBF89831A821B821C825E
:102D10001D821A828A818430C8F51B828B8184309F
:102D200088F58A81282F33278B81482F5527C901A1
:102D3000880F991F880F991F9C01240F351FC90107
:102D4000820F931FDC01A050BE4F8A81282F3327AA
:102D50008B81482F5527C901880F991F880F991F0C
:102D60009C01240F351FC901820F931FFC01E05203
:102D7000FE4F8081918111969C938E938B818F5F02
:102D80008B83CCCF8A818F5F8A83C4CF8981813046
:102D900009F066C11A828A81843008F073C01C82EF
:102DA0008C81833008F06AC083E08B838B81882319
:102DB00009F460C08A81282F33278B81482F55273B
:102DC000C901880F991F880F991F9C01240F351F77
:102DD000C901820F931FFC01E052FE4F8081918157
:102DE000009709F043C08B818D838D81882389F101
:102DF0008A81282F33278D81482F5527C901880FB5
:102E0000991F880F991F9C01240F351FC901820F3C
:102E1000931FDC01A052BE4F8A81282F33278D815A
:102E2000482F5527C901880F991F880F991F9C01AA
:102E3000240F351FC901820F931FFC01E252FE4F80
:102E40008081918111969C938E938D8181508D8389
:102E5000CCCF8A819927880F991F880F991F880FD7
:102E6000991FFC01E052FE4F118210828B8181502C
:102E70008B839CCF8C818F5F8C8392CF8A818F5F75
:102E80008A8389CF1A828A81843008F0E9C083E07E
:102E90008B838B81882309F4DFC08A81282F332715
:102EA0008B81482F5527C901880F991F880F991FBB
:102EB0009C01240F351FC901820F931FDC01A05212
:102EC000BE4F8A81282F33278B81482F5527C90170
:102ED000880F991F880F991F9C01240F351FC90166
:102EE000820F931FFC01E252FE4F2D913C911197EE
:102EF000808191812817390709F0AAC08A81282F7B
:102F000033278B81482F5527C901880F991F880FB8
:102F1000991F9C01240F351FC901820F931FBC010B
:102F200060527E4F8A81282F33278B81482F552767
:102F3000C901880F991F880F991F9C01240F351F05
:102F4000C901820F931FDC01A052BE4F8A81282F36
:102F500033278B81482F5527C901880F991F880F68
:102F6000991F9C01240F351FC901820F931FFC017B
:102F7000E252FE4F2D913C91119780819181820FF9
:102F8000931FFB01918380838A81282F33278B81B4
:102F9000482F5527C901880F991F880F991F9C0139
:102FA000240F351FC901820F931FFC01E052FE4F11
:102FB000209120023091210280819181820F931F04
:102FC00090932102809320028B8181508D838D818B
:102FD000882389F18A81282F33278D81482F55270F
:102FE000C901880F991F880F991F9C01240F351F55
:102FF000C901820F931FDC01A052BE4F8A81282F86
:1030000033278D81482F5527C901880F991F880FB5
:10301000991F9C01240F351FC901820F931FFC01CA
:10302000E252FE4F8081918111969C938E938D8107
:1030300081508D83CCCF8A819927880F991F880F63
:10304000991F880F991FFC01E052FE4F11821082D8
:103050008B8181508B831DCF8A818F5F8A8313CFB1
:103060008981823009F062C11A828A81843008F035
:1030700071C01C828C81833008F068C083E08B8330
:103080008B81882309F45EC08B81282F33278A81A6
:10309000482F5527C901880F991F880F991F9C0138
:1030A000240F351FC901820F931FFC01E052FE4F10
:1030B00080819181009709F041C08B818D838D8142
:1030C000882389F18D81282F33278A81482F55271E
:1030D000C901880F991F880F991F9C01240F351F64
:1030E000C901820F931FDC01A052BE4F8D81282F92
:1030F00033278A81482F5527C901880F991F880FC8
:10310000991F9C01240F351FC901820F931FFC01D9
:10311000E852FE4F8081918111969C938E938D8110
:1031200081508D83CCCF8A81282F3327C901820F0C
:10313000931FFC01E052FE4F118210828B8181505F
:103140008B839ECF8C818F5F8C8394CF8A818F5F9E
:103150008A838BCF1A828A81843008F0E7C083E0AB
:103160008B838B81882309F4DDC08B81282F332743
:103170008A81482F5527C901880F991F880F991FE9
:103180009C01240F351FC901820F931FDC01A0523F
:10319000BE4F8B81282F33278A81482F5527C9019D
:1031A000880F991F880F991F9C01240F351FC90193
:1031B000820F931FFC01E852FE4F2D913C91119715
:1031C000808191812817390709F0A8C08B81282FA9
:1031D00033278A81482F5527C901880F991F880FE7
:1031E000991F9C01240F351FC901820F931FBC0139
:1031F00060527E4F8B81282F33278A81482F552795
:10320000C901880F991F880F991F9C01240F351F32
:10321000C901820F931FDC01A052BE4F8B81282F62
:1032200033278A81482F5527C901880F991F880F96
:10323000991F9C01240F351FC901820F931FFC01A8
:10324000E852FE4F2D913C91119780819181820F20
:10325000931FFB01918380838B81282F33278A81E1
:10326000482F5527C901880F991F880F991F9C0166
:10327000240F351FC901820F931FFC01E052FE4F3E
:10328000209120023091210280819181820F931F31
:1032900090932102809320028B8181508D838D81B8
:1032A000882389F18D81282F33278A81482F55273C
:1032B000C901880F991F880F991F9C01240F351F82
:1032C000C901820F931FDC01A052BE4F8D81282FB0
:1032D00033278A81482F5527C901880F991F880FE6
:1032E000991F9C01240F351FC901820F931FFC01F8
:1032F000E852FE4F8081918111969C938E938D812F
:1033000081508D83CCCF8A81282F3327C901820F2A
:10331000931FFC01E052FE4F118210828B8181507D
:103320008B831FCF8A818F5F8A8315CF89818330FA
:1033300009F064C11A828A81843008F072C01C824C
:103340008C81833008F069C01B828B81833008F048
:1033500060C08A81282F33278B81482F5527C901C8
:10336000880F991F880F991F9C01240F351FC901D1
:10337000820F931FFC01E052FE4F808191810097E4
:1033800009F043C08B818D838D81833088F58A81DC
:10339000282F33278D81482F5527C901880F991F62
:1033A000880F991F9C01240F351FC901820F931F9D
:1033B000DC01A052BE4F8A81282F33278D81482FF0
:1033C0005527C901880F991F880F991F9C01240F49
:1033D000351FC901820F931FFC01EE51FE4F808102
:1033E000918111969C938E938D818F5F8D83CCCF2D
:1033F0008A819927880F991F880F991F880F991F15
:10340000FC01EA51FE4F118210828B818F5F8B830A
:103410009CCF8C818F5F8C8393CF8A818F5F8A83CF
:103420008ACF1A828A81843008F0E8C01B828B819F
:10343000833008F0DFC08A81282F33278B81482F03
:103440005527C901880F991F880F991F9C01240FC8
:10345000351FC901820F931FDC01A052BE4F8A8124
:10346000282F33278B81482F5527C901880F991F93
:10347000880F991F9C01240F351FC901820F931FCC
:10348000FC01EE51FE4F2D913C911197808191816D
:103490002817390709F0AAC08A81282F33278B8182
:1034A000482F5527C901880F991F880F991F9C0124
:1034B000240F351FC901820F931FBC0160527E4F3C
:1034C0008A81282F33278B81482F5527C901880FE0
:1034D000991F880F991F9C01240F351FC901820F66
:1034E000931FDC01A052BE4F8A81282F33278B8186
:1034F000482F5527C901880F991F880F991F9C01D4
:10350000240F351FC901820F931FFC01EE51FE4F9E
:103510002D913C91119780819181820F931FFB0126
:10352000918380838A81282F33278B81482F5527C9
:10353000C901880F991F880F991F9C01240F351FFF
:10354000C901820F931FFC01E052FE4F209120021F
:103550003091210280819181820F931F90932102EB
:10356000809320028B818F5F8D838D81833088F5DE
:103570008A81282F33278D81482F5527C901880F2D
:10358000991F880F991F9C01240F351FC901820FB5
:10359000931FDC01A052BE4F8A81282F33278D81D3
:1035A000482F5527C901880F991F880F991F9C0123
:1035B000240F351FC901820F931FFC01EE51FE4FEE
:1035C0008081918111969C938E938D818F5F8D83E5
:1035D000CCCF8A819927880F991F880F991F880F50
:1035E000991FFC01EA51FE4F118210828B818F5F7F
:1035F0008B831DCF8A818F5F8A8314CF898184302A
:1036000009F060C11A828A81843008F070C01C827F
:103610008C81833008F067C01B828B81833008F077
:103620005EC08B81282F33278A81482F5527C901F7
:10363000880F991F880F991F9C01240F351FC901FE
:10364000820F931FFC01E052FE4F80819181009711
:1036500009F041C08B818D838D81833088F58D8108
:10366000282F33278A81482F5527C901880F991F92
:10367000880F991F9C01240F351FC901820F931FCA
:10368000DC01A052BE4F8D81282F33278A81482F1D
:103690005527C901880F991F880F991F9C01240F76
:1036A000351FC901820F931FFC01E851FE4F808135
:1036B000918111969C938E938D818F5F8D83CCCF5A
:1036C0008A81282F3327C901820F931FFC01E850FC
:1036D000FE4F118210828B818F5F8B839ECF8C81F6
:1036E0008F5F8C8395CF8A818F5F8A838CCF1A827C
:1036F0008A81843008F0E6C01B828B81833008F019
:10370000DDC08B81282F33278A81482F5527C90197
:10371000880F991F880F991F9C01240F351FC9011D
:10372000820F931FDC01A052BE4F8B81282F3327BD
:103730008A81482F5527C901880F991F880F991F23
:103740009C01240F351FC901820F931FFC01E85112
:10375000FE4F2D913C911197808191812817390757
:1037600009F0A8C08B81282F33278A81482F55273D
:10377000C901880F991F880F991F9C01240F351FBD
:10378000C901820F931FBC0160527E4F8B81282F8D
:1037900033278A81482F5527C901880F991F880F21
:1037A000991F9C01240F351FC901820F931FDC0153
:1037B000A052BE4F8B81282F33278A81482F55274F
:1037C000C901880F991F880F991F9C01240F351F6D
:1037D000C901820F931FFC01E851FE4F2D913C91CE
:1037E000119780819181820F931FFB0191838083C8
:1037F0008B81282F33278A81482F5527C901880FAD
:10380000991F880F991F9C01240F351FC901820F32
:10381000931FFC01E052FE4F2091200230912102C3
:1038200080819181820F931F9093210280932002C7
:103830008B818F5F8D838D81833088F58D81282FDB
:1038400033278A81482F5527C901880F991F880F70
:10385000991F9C01240F351FC901820F931FDC01A2
:10386000A052BE4F8D81282F33278A81482F55279C
:10387000C901880F991F880F991F9C01240F351FBC
:10388000C901820F931FFC01E851FE4F8081918195
:1038900011969C938E938D818F5F8D83CCCF8A817F
:1038A000282F3327C901820F931FFC01E850FE4FD8
:1038B000118210828B818F5F8B831FCF8A818F5FF4
:1038C0008A8316CF8091200290912102892F992717
:1038D000482F64E180E00E94701D4091200265E164
:1038E00080E00E94701D0E941E16813009F04DC0BC
:1038F0000E94E2131E821A828A81843008F045C039
:103900001B828B818430E8F58A81282F33278B81B5
:10391000482F5527C901880F991F880F991F9C01AF
:10392000240F351FC901820F931FFC01E052FE4F87
:1039300080819181892F9927482F6E8180E00E9494
:10394000701D8A81282F33278B81482F5527C90165
:10395000880F991F880F991F9C01240F351FC901DB
:10396000820F931FFC01E052FE4F40816E8181E087
:103970000E94701D8E818F5F8E838B818F5F8B8302
:10398000C0CF8A818F5F8A83B7CF26960FB6F8940F
:10399000DEBF0FBECDBFDF91CF910895CF93DF93F0
:1039A000CDB7DEB780913700846A8093370080916D
:1039B0003800846080933800809137008F7B80933B
:1039C0003700809131008461809331008091320012
:1039D0008460809332008091320080618093320055
:1039E000DF91CF910895CF93DF93CDB7DEB72297C4
:1039F0000FB6F894DEBF0FBECDBF89831A828A81CD
:103A0000883000F59FE78091380089238093380043
:103A10008981882334F48091380080628093380053
:103A200005C0809138008F7D809338008981880F90
:103A30008983809138008068809338008A818F5F05
:103A40008A83DDCF80913800806880933800229689
:103A50000FB6F894DEBF0FBECDBFDF91CF910895B2
:103A6000CF93DF93CDB7DEB722970FB6F894DEBFC2
:103A70000FBECDBF1A828FE79091380089238093C3
:103A8000380019828981883000F59FE780913800DD
:103A90008923809338008A81880F8A838091360039
:103AA000992780749070009721F08A8181608A83C1
:103AB00003C08A818E7F8A838091380080688093DA
:103AC000380089818F5F8983DDCF8A81992722968B
:103AD0000FB6F894DEBF0FBECDBFDF91CF91089532
:103AE000CF93DF93CDB7DEB723970FB6F894DEBF41
:103AF0000FBECDBF89836A834B8380913B00816079
:103B000080933B00809138008068809338008091DA
:103B100032008F7E8093320086E00E94F31C8091F9
:103B20003200806180933200809132008F7E8093DA
:103B3000320082E00E94F31C89810E94F31C8A817A
:103B40000E94F31C8B810E94F31C809132008061E3
:103B50008093320023960FB6F894DEBF0FBECDBF20
:103B6000DF91CF910895CF93DF93CDB7DEB7239741
:103B70000FB6F894DEBF0FBECDBF89836A838091F4
:103B80003B00816080933B00809138008068809387
:103B90003800809132008F7E8093320083E00E9453
:103BA000F31C89810E94F31C8A810E94F31C0E94ED
:103BB000301D8B83809132008061809332008B8135
:103BC000992723960FB6F894DEBF0FBECDBFDF91C5
:103BD000CF910895991B79E004C0991F961708F0BA
:103BE000961B881F7A95C9F780950895AA1BBB1B61
:103BF00051E107C0AA1FBB1FA617B70710F0A61BED
:103C0000B70B881F991F5A95A9F780959095BC010D
:103C1000CD01089597FB092E07260AD077FD04D021
:103C2000E5DF06D000201AF4709561957F4F089566
:0A3C3000F6F7909581959F4F0895D7
:103C3A00736C656374696F6E2066756E74696F6EF6
:103C4A0000312E20656E7465722067616D650032E1
:103C5A002E207265736576657264000600000000A6
:103C6A000000000060600000003E5149453E00002F
:103C7A00427F4000004261514946002141454B3193
:103C8A00001814127F10002745454539003C4A495F
:103C9A0049300001710905030036494949360006D1
:103CAA004949291E00003636000000205454547831
:103CBA00007F48444438003844444420003844448F
:103CCA00487F00385454541800087E09010200182D
:103CDA00A4A4A47C007F080404780000447D40006A
:103CEA00004080847D00007F102844000000417F4E
:103CFA004000007C04180478007C0804047800382A
:103D0A004444443800FC242424180018242418FCB1
:103D1A00007C0804040800485454542000043F441A
:103D2A004020003C4040207C001C2040201C003CDD
:103D3A004030403C004428102844001CA0A0A07C2D
:103D4A00004464544C44427F40003E41413E00429C
:103D5A0061514E001814127F100F11214284422122
:103D6A00110F6C6566742D2D2D636F6E74696E75F7
:103D7A00650072696768742D2D6E65772067616DBD
:103D8A00650073636F72653A30000000000000003E
:103D9A0000000067616D65206F7665722100796F9A
:083DAA00752077696E2100000D
:04000003000027C40E
:00000001FF
